{
  "_format": "hh-sol-artifact-1",
  "contractName": "Voting",
  "sourceName": "contracts/Voting.sol",
  "abi": [
    {
      "inputs": [
        {
          "internalType": "address",
          "name": "initialOwner",
          "type": "address"
        }
      ],
      "stateMutability": "nonpayable",
      "type": "constructor"
    },
    {
      "inputs": [
        {
          "internalType": "address",
          "name": "owner",
          "type": "address"
        }
      ],
      "name": "OwnableInvalidOwner",
      "type": "error"
    },
    {
      "inputs": [
        {
          "internalType": "address",
          "name": "account",
          "type": "address"
        }
      ],
      "name": "OwnableUnauthorizedAccount",
      "type": "error"
    },
    {
      "inputs": [],
      "name": "ReentrancyGuardReentrantCall",
      "type": "error"
    },
    {
      "anonymous": false,
      "inputs": [
        {
          "indexed": false,
          "internalType": "uint256",
          "name": "campaignId",
          "type": "uint256"
        },
        {
          "indexed": false,
          "internalType": "uint256",
          "name": "startDate",
          "type": "uint256"
        },
        {
          "indexed": false,
          "internalType": "uint256",
          "name": "endDate",
          "type": "uint256"
        }
      ],
      "name": "CampaignCreated",
      "type": "event"
    },
    {
      "anonymous": false,
      "inputs": [
        {
          "indexed": false,
          "internalType": "uint256",
          "name": "campaignId",
          "type": "uint256"
        }
      ],
      "name": "CampaignDeleted",
      "type": "event"
    },
    {
      "anonymous": false,
      "inputs": [
        {
          "indexed": true,
          "internalType": "address",
          "name": "previousOwner",
          "type": "address"
        },
        {
          "indexed": true,
          "internalType": "address",
          "name": "newOwner",
          "type": "address"
        }
      ],
      "name": "OwnershipTransferred",
      "type": "event"
    },
    {
      "anonymous": false,
      "inputs": [
        {
          "indexed": false,
          "internalType": "address",
          "name": "userAddress",
          "type": "address"
        },
        {
          "indexed": false,
          "internalType": "string",
          "name": "name",
          "type": "string"
        },
        {
          "indexed": false,
          "internalType": "string",
          "name": "email",
          "type": "string"
        }
      ],
      "name": "UserDetailsUpdated",
      "type": "event"
    },
    {
      "anonymous": false,
      "inputs": [
        {
          "indexed": false,
          "internalType": "address",
          "name": "userAddress",
          "type": "address"
        },
        {
          "indexed": false,
          "internalType": "enum Role",
          "name": "role",
          "type": "uint8"
        },
        {
          "indexed": false,
          "internalType": "enum RequestStatus",
          "name": "status",
          "type": "uint8"
        },
        {
          "indexed": false,
          "internalType": "string",
          "name": "adminFeedback",
          "type": "string"
        }
      ],
      "name": "VerificationProcessed",
      "type": "event"
    },
    {
      "anonymous": false,
      "inputs": [
        {
          "indexed": false,
          "internalType": "address",
          "name": "userAddress",
          "type": "address"
        },
        {
          "indexed": false,
          "internalType": "enum Role",
          "name": "requestedRole",
          "type": "uint8"
        },
        {
          "indexed": false,
          "internalType": "string",
          "name": "verificationDocIpfsHash",
          "type": "string"
        }
      ],
      "name": "VerificationRequested",
      "type": "event"
    },
    {
      "anonymous": false,
      "inputs": [
        {
          "indexed": false,
          "internalType": "address",
          "name": "voter",
          "type": "address"
        },
        {
          "indexed": false,
          "internalType": "address",
          "name": "candidate",
          "type": "address"
        },
        {
          "indexed": false,
          "internalType": "uint256",
          "name": "campaignId",
          "type": "uint256"
        }
      ],
      "name": "VoteCast",
      "type": "event"
    },
    {
      "inputs": [],
      "name": "admin",
      "outputs": [
        {
          "internalType": "address",
          "name": "",
          "type": "address"
        }
      ],
      "stateMutability": "view",
      "type": "function"
    },
    {
      "inputs": [
        {
          "internalType": "uint256",
          "name": "",
          "type": "uint256"
        }
      ],
      "name": "campaigns",
      "outputs": [
        {
          "internalType": "uint256",
          "name": "campaignId",
          "type": "uint256"
        },
        {
          "internalType": "uint256",
          "name": "startDate",
          "type": "uint256"
        },
        {
          "internalType": "uint256",
          "name": "endDate",
          "type": "uint256"
        },
        {
          "internalType": "address",
          "name": "winner",
          "type": "address"
        },
        {
          "internalType": "bool",
          "name": "isOpen",
          "type": "bool"
        },
        {
          "internalType": "string",
          "name": "campaignDetailsIpfsHash",
          "type": "string"
        }
      ],
      "stateMutability": "view",
      "type": "function"
    },
    {
      "inputs": [
        {
          "internalType": "address",
          "name": "",
          "type": "address"
        }
      ],
      "name": "candidateVoteCount",
      "outputs": [
        {
          "internalType": "uint256",
          "name": "",
          "type": "uint256"
        }
      ],
      "stateMutability": "view",
      "type": "function"
    },
    {
      "inputs": [
        {
          "internalType": "bytes",
          "name": "",
          "type": "bytes"
        }
      ],
      "name": "checkUpkeep",
      "outputs": [
        {
          "internalType": "bool",
          "name": "upkeepNeeded",
          "type": "bool"
        },
        {
          "internalType": "bytes",
          "name": "performData",
          "type": "bytes"
        }
      ],
      "stateMutability": "view",
      "type": "function"
    },
    {
      "inputs": [
        {
          "internalType": "uint256",
          "name": "_startDate",
          "type": "uint256"
        },
        {
          "internalType": "uint256",
          "name": "_endDate",
          "type": "uint256"
        },
        {
          "internalType": "string",
          "name": "_campaignDetailsIpfsHash",
          "type": "string"
        }
      ],
      "name": "createCampaign",
      "outputs": [],
      "stateMutability": "nonpayable",
      "type": "function"
    },
    {
      "inputs": [
        {
          "internalType": "uint256",
          "name": "_campaignId",
          "type": "uint256"
        }
      ],
      "name": "deleteCampaign",
      "outputs": [],
      "stateMutability": "nonpayable",
      "type": "function"
    },
    {
      "inputs": [
        {
          "internalType": "uint256",
          "name": "_campaignId",
          "type": "uint256"
        }
      ],
      "name": "getCampaignDetails",
      "outputs": [
        {
          "internalType": "uint256",
          "name": "startDate",
          "type": "uint256"
        },
        {
          "internalType": "uint256",
          "name": "endDate",
          "type": "uint256"
        },
        {
          "internalType": "address",
          "name": "winner",
          "type": "address"
        },
        {
          "internalType": "bool",
          "name": "isOpen",
          "type": "bool"
        },
        {
          "internalType": "string",
          "name": "detailsIpfsHash",
          "type": "string"
        },
        {
          "internalType": "address[]",
          "name": "voters",
          "type": "address[]"
        },
        {
          "internalType": "address[]",
          "name": "candidates",
          "type": "address[]"
        }
      ],
      "stateMutability": "view",
      "type": "function"
    },
    {
      "inputs": [],
      "name": "getPendingVerificationRequests",
      "outputs": [
        {
          "internalType": "address[]",
          "name": "userAddresses",
          "type": "address[]"
        },
        {
          "internalType": "enum Role[]",
          "name": "requestedRoles",
          "type": "uint8[]"
        },
        {
          "internalType": "string[]",
          "name": "verificationDocIpfsHashes",
          "type": "string[]"
        },
        {
          "internalType": "string[]",
          "name": "adminFeedbacks",
          "type": "string[]"
        }
      ],
      "stateMutability": "view",
      "type": "function"
    },
    {
      "inputs": [],
      "name": "hasActiveCampaign",
      "outputs": [
        {
          "internalType": "bool",
          "name": "",
          "type": "bool"
        }
      ],
      "stateMutability": "view",
      "type": "function"
    },
    {
      "inputs": [],
      "name": "nextCampaignId",
      "outputs": [
        {
          "internalType": "uint256",
          "name": "",
          "type": "uint256"
        }
      ],
      "stateMutability": "view",
      "type": "function"
    },
    {
      "inputs": [],
      "name": "owner",
      "outputs": [
        {
          "internalType": "address",
          "name": "",
          "type": "address"
        }
      ],
      "stateMutability": "view",
      "type": "function"
    },
    {
      "inputs": [
        {
          "internalType": "bytes",
          "name": "performData",
          "type": "bytes"
        }
      ],
      "name": "performUpkeep",
      "outputs": [],
      "stateMutability": "nonpayable",
      "type": "function"
    },
    {
      "inputs": [
        {
          "internalType": "address",
          "name": "_userAddress",
          "type": "address"
        },
        {
          "internalType": "bool",
          "name": "_approved",
          "type": "bool"
        },
        {
          "internalType": "string",
          "name": "_feedback",
          "type": "string"
        }
      ],
      "name": "processVerification",
      "outputs": [],
      "stateMutability": "nonpayable",
      "type": "function"
    },
    {
      "inputs": [
        {
          "internalType": "uint256",
          "name": "_campaignId",
          "type": "uint256"
        }
      ],
      "name": "registerForCampaign",
      "outputs": [],
      "stateMutability": "nonpayable",
      "type": "function"
    },
    {
      "inputs": [],
      "name": "renounceOwnership",
      "outputs": [],
      "stateMutability": "nonpayable",
      "type": "function"
    },
    {
      "inputs": [
        {
          "internalType": "enum Role",
          "name": "_requestedRole",
          "type": "uint8"
        },
        {
          "internalType": "string",
          "name": "_verificationDocIpfsHash",
          "type": "string"
        }
      ],
      "name": "requestVerification",
      "outputs": [],
      "stateMutability": "nonpayable",
      "type": "function"
    },
    {
      "inputs": [
        {
          "internalType": "address",
          "name": "newOwner",
          "type": "address"
        }
      ],
      "name": "transferOwnership",
      "outputs": [],
      "stateMutability": "nonpayable",
      "type": "function"
    },
    {
      "inputs": [
        {
          "internalType": "string",
          "name": "_name",
          "type": "string"
        },
        {
          "internalType": "string",
          "name": "_email",
          "type": "string"
        },
        {
          "internalType": "uint256",
          "name": "_dateOfBirth",
          "type": "uint256"
        },
        {
          "internalType": "string",
          "name": "_identityNumber",
          "type": "string"
        },
        {
          "internalType": "string",
          "name": "_contactNumber",
          "type": "string"
        },
        {
          "internalType": "string",
          "name": "_bio",
          "type": "string"
        },
        {
          "internalType": "string",
          "name": "_profileImageIpfsHash",
          "type": "string"
        },
        {
          "internalType": "string[]",
          "name": "_supportiveLinks",
          "type": "string[]"
        }
      ],
      "name": "updateUserDetails",
      "outputs": [],
      "stateMutability": "nonpayable",
      "type": "function"
    },
    {
      "inputs": [
        {
          "internalType": "address",
          "name": "",
          "type": "address"
        }
      ],
      "name": "userDetails",
      "outputs": [
        {
          "internalType": "string",
          "name": "name",
          "type": "string"
        },
        {
          "internalType": "string",
          "name": "email",
          "type": "string"
        },
        {
          "internalType": "uint256",
          "name": "dateOfBirth",
          "type": "uint256"
        },
        {
          "internalType": "string",
          "name": "identityNumber",
          "type": "string"
        },
        {
          "internalType": "string",
          "name": "contactNumber",
          "type": "string"
        },
        {
          "internalType": "string",
          "name": "bio",
          "type": "string"
        },
        {
          "internalType": "string",
          "name": "profileImageIpfsHash",
          "type": "string"
        }
      ],
      "stateMutability": "view",
      "type": "function"
    },
    {
      "inputs": [
        {
          "internalType": "address",
          "name": "",
          "type": "address"
        }
      ],
      "name": "userRoles",
      "outputs": [
        {
          "internalType": "enum Role",
          "name": "",
          "type": "uint8"
        }
      ],
      "stateMutability": "view",
      "type": "function"
    },
    {
      "inputs": [
        {
          "internalType": "address",
          "name": "",
          "type": "address"
        }
      ],
      "name": "verificationRequests",
      "outputs": [
        {
          "internalType": "address",
          "name": "userAddress",
          "type": "address"
        },
        {
          "internalType": "enum Role",
          "name": "requestedRole",
          "type": "uint8"
        },
        {
          "internalType": "enum RequestStatus",
          "name": "status",
          "type": "uint8"
        },
        {
          "internalType": "string",
          "name": "verificationDocIpfsHash",
          "type": "string"
        },
        {
          "internalType": "string",
          "name": "adminFeedback",
          "type": "string"
        }
      ],
      "stateMutability": "view",
      "type": "function"
    },
    {
      "inputs": [
        {
          "internalType": "uint256",
          "name": "_campaignId",
          "type": "uint256"
        },
        {
          "internalType": "address",
          "name": "_candidate",
          "type": "address"
        }
      ],
      "name": "vote",
      "outputs": [],
      "stateMutability": "nonpayable",
      "type": "function"
    },
    {
      "inputs": [
        {
          "internalType": "address",
          "name": "",
          "type": "address"
        },
        {
          "internalType": "uint256",
          "name": "",
          "type": "uint256"
        }
      ],
      "name": "votes",
      "outputs": [
        {
          "internalType": "address",
          "name": "",
          "type": "address"
        }
      ],
      "stateMutability": "view",
      "type": "function"
    }
  ],
  "bytecode": "0x6080604052600160095534801561001557600080fd5b50604051615c4d380380615c4d83398181016040528101906100379190610296565b80600073ffffffffffffffffffffffffffffffffffffffff168173ffffffffffffffffffffffffffffffffffffffff16036100aa5760006040517f1e4fbdf70000000000000000000000000000000000000000000000000000000081526004016100a191906102d2565b60405180910390fd5b6100b98161016f60201b60201c565b506001808190555080600a60006101000a81548173ffffffffffffffffffffffffffffffffffffffff021916908373ffffffffffffffffffffffffffffffffffffffff16021790555060038060008373ffffffffffffffffffffffffffffffffffffffff1673ffffffffffffffffffffffffffffffffffffffff16815260200190815260200160002060006101000a81548160ff02191690836004811115610164576101636102ed565b5b02179055505061031c565b60008060009054906101000a900473ffffffffffffffffffffffffffffffffffffffff169050816000806101000a81548173ffffffffffffffffffffffffffffffffffffffff021916908373ffffffffffffffffffffffffffffffffffffffff1602179055508173ffffffffffffffffffffffffffffffffffffffff168173ffffffffffffffffffffffffffffffffffffffff167f8be0079c531659141344cd1fd0a4f28419497f9722a3daafe3b4186f6b6457e060405160405180910390a35050565b600080fd5b600073ffffffffffffffffffffffffffffffffffffffff82169050919050565b600061026382610238565b9050919050565b61027381610258565b811461027e57600080fd5b50565b6000815190506102908161026a565b92915050565b6000602082840312156102ac576102ab610233565b5b60006102ba84828501610281565b91505092915050565b6102cc81610258565b82525050565b60006020820190506102e760008301846102c3565b92915050565b7f4e487b7100000000000000000000000000000000000000000000000000000000600052602160045260246000fd5b6159228061032b6000396000f3fe608060405234801561001057600080fd5b506004361061014d5760003560e01c8063812cf106116100c3578063d0ba3b7f1161007c578063d0ba3b7f146103be578063d407dcb2146103df578063d993de62146103fb578063e573beec14610431578063f2fde38b1461044d578063f851a440146104695761014d565b8063812cf106146102ec5780638da5cb5b1461031c57806391cbf44e1461033a5780639f2524ee14610356578063a286c73c14610386578063afe174ed146103a25761014d565b8063606912601161011557806360691260146102295780636e04ff0d14610247578063715018a61461027857806374d5e1001461028257806375970193146102b25780637903a756146102ce5761014d565b806302d947ef14610152578063141961bc1461016e57806320376f10146101a35780634585e33b146101d757806348dec2a7146101f3575b600080fd5b61016c60048036038101906101679190613c9e565b610487565b005b61018860048036038101906101839190613cde565b610918565b60405161019a96959493929190613dd4565b60405180910390f35b6101bd60048036038101906101b89190613e3c565b610a09565b6040516101ce959493929190613f28565b60405180910390f35b6101f160048036038101906101ec91906140be565b610b89565b005b61020d60048036038101906102089190613e3c565b610bf5565b6040516102209796959493929190614107565b60405180910390f35b610231610f67565b60405161023e91906141a0565b60405180910390f35b610261600480360381019061025c91906140be565b610fe5565b60405161026f929190614210565b60405180910390f35b610280611083565b005b61029c60048036038101906102979190613e3c565b611097565b6040516102a99190614240565b60405180910390f35b6102cc60048036038101906102c79190613cde565b6110b7565b005b6102d66112c9565b6040516102e3919061425b565b60405180910390f35b61030660048036038101906103019190613e3c565b6112cf565b604051610313919061425b565b60405180910390f35b6103246112e7565b6040516103319190614276565b60405180910390f35b610354600480360381019061034f9190614332565b611310565b005b610370600480360381019061036b91906143a1565b611542565b60405161037d9190614276565b60405180910390f35b6103a0600480360381019061039b91906144c7565b611584565b005b6103bc60048036038101906103b7919061466d565b61181d565b005b6103c6612072565b6040516103d69493929190614964565b60405180910390f35b6103f960048036038101906103f49190613cde565b6125db565b005b61041560048036038101906104109190613cde565b612a60565b60405161042897969594939291906149c5565b60405180910390f35b61044b60048036038101906104469190614a6e565b612e10565b005b61046760048036038101906104629190613e3c565b613230565b005b6104716132b6565b60405161047e9190614276565b60405180910390f35b61048f6132dc565b610497610f67565b6104d6576040517f08c379a00000000000000000000000000000000000000000000000000000000081526004016104cd90614b16565b60405180910390fd5b60006005600084815260200190815260200160002090508060080160009054906101000a900460ff1661053e576040517f08c379a000000000000000000000000000000000000000000000000000000000815260040161053590614b82565b60405180910390fd5b6001600481111561055257610551613e69565b5b600360003373ffffffffffffffffffffffffffffffffffffffff1673ffffffffffffffffffffffffffffffffffffffff16815260200190815260200160002060009054906101000a900460ff1660048111156105b1576105b0613e69565b5b146105f1576040517f08c379a00000000000000000000000000000000000000000000000000000000081526004016105e890614bee565b60405180910390fd5b8060040160003373ffffffffffffffffffffffffffffffffffffffff1673ffffffffffffffffffffffffffffffffffffffff16815260200190815260200160002060009054906101000a900460ff1661067f576040517f08c379a000000000000000000000000000000000000000000000000000000000815260040161067690614c5a565b60405180910390fd5b8060050160008373ffffffffffffffffffffffffffffffffffffffff1673ffffffffffffffffffffffffffffffffffffffff16815260200190815260200160002060009054906101000a900460ff1661070d576040517f08c379a000000000000000000000000000000000000000000000000000000000815260040161070490614cc6565b60405180910390fd5b600073ffffffffffffffffffffffffffffffffffffffff16600660003373ffffffffffffffffffffffffffffffffffffffff1673ffffffffffffffffffffffffffffffffffffffff168152602001908152602001600020600085815260200190815260200160002060009054906101000a900473ffffffffffffffffffffffffffffffffffffffff1673ffffffffffffffffffffffffffffffffffffffff16146107ec576040517f08c379a00000000000000000000000000000000000000000000000000000000081526004016107e390614d32565b60405180910390fd5b81600660003373ffffffffffffffffffffffffffffffffffffffff1673ffffffffffffffffffffffffffffffffffffffff168152602001908152602001600020600085815260200190815260200160002060006101000a81548173ffffffffffffffffffffffffffffffffffffffff021916908373ffffffffffffffffffffffffffffffffffffffff160217905550600760008373ffffffffffffffffffffffffffffffffffffffff1673ffffffffffffffffffffffffffffffffffffffff16815260200190815260200160002060008154809291906108cb90614d81565b91905055507f484413c33463e7d976e3ded2a85b0c31610d0906977df2cd9cbd6d12a6872a8433838560405161090393929190614dc9565b60405180910390a150610914613322565b5050565b60056020528060005260406000206000915090508060000154908060010154908060020154908060030160009054906101000a900473ffffffffffffffffffffffffffffffffffffffff16908060080160009054906101000a900460ff169080600901805461098690614e2f565b80601f01602080910402602001604051908101604052809291908181526020018280546109b290614e2f565b80156109ff5780601f106109d4576101008083540402835291602001916109ff565b820191906000526020600020905b8154815290600101906020018083116109e257829003601f168201915b5050505050905086565b60046020528060005260406000206000915090508060000160009054906101000a900473ffffffffffffffffffffffffffffffffffffffff16908060000160149054906101000a900460ff16908060000160159054906101000a900460ff1690806001018054610a7890614e2f565b80601f0160208091040260200160405190810160405280929190818152602001828054610aa490614e2f565b8015610af15780601f10610ac657610100808354040283529160200191610af1565b820191906000526020600020905b815481529060010190602001808311610ad457829003601f168201915b505050505090806002018054610b0690614e2f565b80601f0160208091040260200160405190810160405280929190818152602001828054610b3290614e2f565b8015610b7f5780601f10610b5457610100808354040283529160200191610b7f565b820191906000526020600020905b815481529060010190602001808311610b6257829003601f168201915b5050505050905085565b610b91610f67565b610bd0576040517f08c379a0000000000000000000000000000000000000000000000000000000008152600401610bc790614b16565b60405180910390fd5b600081806020019051810190610be69190614e75565b9050610bf18161332b565b5050565b6002602052806000526040600020600091509050806000018054610c1890614e2f565b80601f0160208091040260200160405190810160405280929190818152602001828054610c4490614e2f565b8015610c915780601f10610c6657610100808354040283529160200191610c91565b820191906000526020600020905b815481529060010190602001808311610c7457829003601f168201915b505050505090806001018054610ca690614e2f565b80601f0160208091040260200160405190810160405280929190818152602001828054610cd290614e2f565b8015610d1f5780601f10610cf457610100808354040283529160200191610d1f565b820191906000526020600020905b815481529060010190602001808311610d0257829003601f168201915b505050505090806002015490806003018054610d3a90614e2f565b80601f0160208091040260200160405190810160405280929190818152602001828054610d6690614e2f565b8015610db35780601f10610d8857610100808354040283529160200191610db3565b820191906000526020600020905b815481529060010190602001808311610d9657829003601f168201915b505050505090806004018054610dc890614e2f565b80601f0160208091040260200160405190810160405280929190818152602001828054610df490614e2f565b8015610e415780601f10610e1657610100808354040283529160200191610e41565b820191906000526020600020905b815481529060010190602001808311610e2457829003601f168201915b505050505090806005018054610e5690614e2f565b80601f0160208091040260200160405190810160405280929190818152602001828054610e8290614e2f565b8015610ecf5780601f10610ea457610100808354040283529160200191610ecf565b820191906000526020600020905b815481529060010190602001808311610eb257829003601f168201915b505050505090806006018054610ee490614e2f565b80601f0160208091040260200160405190810160405280929190818152602001828054610f1090614e2f565b8015610f5d5780601f10610f3257610100808354040283529160200191610f5d565b820191906000526020600020905b815481529060010190602001808311610f4057829003601f168201915b5050505050905087565b600080600190505b600954811015610fdc576000600560008381526020019081526020016000206000015414158015610fc057506005600082815260200190815260200160002060080160009054906101000a900460ff165b15610fcf576001915050610fe2565b8080600101915050610f6f565b50600090505b90565b600060606000600190505b60095481101561107d576005600082815260200190815260200160002060080160009054906101000a900460ff168015611040575060056000828152602001908152602001600020600201544210155b1561107057600192508060405160200161105a919061425b565b604051602081830303815290604052915061107d565b8080600101915050610ff0565b50915091565b61108b61388f565b6110956000613916565b565b60036020528060005260406000206000915054906101000a900460ff1681565b600a60009054906101000a900473ffffffffffffffffffffffffffffffffffffffff1673ffffffffffffffffffffffffffffffffffffffff163373ffffffffffffffffffffffffffffffffffffffff1614611147576040517f08c379a000000000000000000000000000000000000000000000000000000000815260040161113e90614eee565b60405180910390fd5b60006005600083815260200190815260200160002090508060080160009054906101000a900460ff166111af576040517f08c379a00000000000000000000000000000000000000000000000000000000081526004016111a690614f5a565b60405180910390fd5b428160020154116111f5576040517f08c379a00000000000000000000000000000000000000000000000000000000081526004016111ec90614fc6565b60405180910390fd5b60056000838152602001908152602001600020600080820160009055600182016000905560028201600090556003820160006101000a81549073ffffffffffffffffffffffffffffffffffffffff02191690556006820160006112589190613afb565b6007820160006112689190613afb565b6008820160006101000a81549060ff021916905560098201600061128c9190613b1c565b50507fa61e586bd6a065bde887af9ec4705829557488d3ccdea823ab66aafd7c3aa099826040516112bd919061425b565b60405180910390a15050565b60095481565b60076020528060005260406000206000915090505481565b60008060009054906101000a900473ffffffffffffffffffffffffffffffffffffffff16905090565b600a60009054906101000a900473ffffffffffffffffffffffffffffffffffffffff1673ffffffffffffffffffffffffffffffffffffffff163373ffffffffffffffffffffffffffffffffffffffff16146113a0576040517f08c379a000000000000000000000000000000000000000000000000000000000815260040161139790614eee565b60405180910390fd5b8282116113e2576040517f08c379a00000000000000000000000000000000000000000000000000000000081526004016113d990615032565b60405180910390fd5b6000600190505b6009548110156114815760006005600083815260200190815260200160002090506000816000015414611473576000816001015485108061142d5750816002015486115b1590508015611471576040517f08c379a0000000000000000000000000000000000000000000000000000000008152600401611468906150c4565b60405180910390fd5b505b5080806001019150506113e9565b5060006005600060095481526020019081526020016000209050600954816000018190555083816001018190555082816002018190555060018160080160006101000a81548160ff021916908315150217905550818160090190816114e69190615290565b507f83b4437053910ef5d844baa18cd582ee4e0f10e7d117f728da7a91399351bd92600954858560405161151c93929190615362565b60405180910390a16009600081548092919061153790614d81565b919050555050505050565b60066020528160005260406000206020528060005260406000206000915091509054906101000a900473ffffffffffffffffffffffffffffffffffffffff1681565b6000600481111561159857611597613e69565b5b600360003373ffffffffffffffffffffffffffffffffffffffff1673ffffffffffffffffffffffffffffffffffffffff16815260200190815260200160002060009054906101000a900460ff1660048111156115f7576115f6613e69565b5b1480611672575060048081111561161157611610613e69565b5b600360003373ffffffffffffffffffffffffffffffffffffffff1673ffffffffffffffffffffffffffffffffffffffff16815260200190815260200160002060009054906101000a900460ff1660048111156116705761166f613e69565b5b145b6116b1576040517f08c379a00000000000000000000000000000000000000000000000000000000081526004016116a89061540b565b60405180910390fd5b60405180610100016040528089815260200188815260200187815260200186815260200185815260200184815260200183815260200182815250600260003373ffffffffffffffffffffffffffffffffffffffff1673ffffffffffffffffffffffffffffffffffffffff168152602001908152602001600020600082015181600001908161173f9190615290565b5060208201518160010190816117559190615290565b506040820151816002015560608201518160030190816117759190615290565b50608082015181600401908161178b9190615290565b5060a08201518160050190816117a19190615290565b5060c08201518160060190816117b79190615290565b5060e08201518160070190805190602001906117d4929190613b5c565b509050507f3d0defd77a6ada973cd910d9a8e80d364ff26556da2a1696b92d051b300cd38c33898960405161180b9392919061542b565b60405180910390a15050505050505050565b600a60009054906101000a900473ffffffffffffffffffffffffffffffffffffffff1673ffffffffffffffffffffffffffffffffffffffff163373ffffffffffffffffffffffffffffffffffffffff16146118ad576040517f08c379a00000000000000000000000000000000000000000000000000000000081526004016118a490614eee565b60405180910390fd5b6118b5610f67565b6118f4576040517f08c379a00000000000000000000000000000000000000000000000000000000081526004016118eb90614b16565b60405180910390fd5b6000600460008573ffffffffffffffffffffffffffffffffffffffff1673ffffffffffffffffffffffffffffffffffffffff16815260200190815260200160002090506000600281111561194b5761194a613e69565b5b8160000160159054906101000a900460ff16600281111561196f5761196e613e69565b5b146119af576040517f08c379a00000000000000000000000000000000000000000000000000000000081526004016119a6906154bc565b60405180910390fd5b8215611dde5760018160000160156101000a81548160ff021916908360028111156119dd576119dc613e69565b5b02179055508060000160149054906101000a900460ff16600360008673ffffffffffffffffffffffffffffffffffffffff1673ffffffffffffffffffffffffffffffffffffffff16815260200190815260200160002060006101000a81548160ff02191690836004811115611a5557611a54613e69565b5b021790555060006001600954611a6b91906154dc565b9050600081118015611a9d57506005600082815260200190815260200160002060080160009054906101000a900460ff165b15611dd857600060056000838152602001908152602001600020905060016004811115611acd57611acc613e69565b5b8360000160149054906101000a900460ff166004811115611af157611af0613e69565b5b03611c49578060040160008773ffffffffffffffffffffffffffffffffffffffff1673ffffffffffffffffffffffffffffffffffffffff16815260200190815260200160002060009054906101000a900460ff1615611b85576040517f08c379a0000000000000000000000000000000000000000000000000000000008152600401611b7c9061555c565b60405180910390fd5b60018160040160008873ffffffffffffffffffffffffffffffffffffffff1673ffffffffffffffffffffffffffffffffffffffff16815260200190815260200160002060006101000a81548160ff02191690831515021790555080600601869080600181540180825580915050600190039060005260206000200160009091909190916101000a81548173ffffffffffffffffffffffffffffffffffffffff021916908373ffffffffffffffffffffffffffffffffffffffff160217905550611dd6565b60026004811115611c5d57611c5c613e69565b5b8360000160149054906101000a900460ff166004811115611c8157611c80613e69565b5b03611dd5578060050160008773ffffffffffffffffffffffffffffffffffffffff1673ffffffffffffffffffffffffffffffffffffffff16815260200190815260200160002060009054906101000a900460ff1615611d15576040517f08c379a0000000000000000000000000000000000000000000000000000000008152600401611d0c906155c8565b60405180910390fd5b60018160050160008873ffffffffffffffffffffffffffffffffffffffff1673ffffffffffffffffffffffffffffffffffffffff16815260200190815260200160002060006101000a81548160ff02191690831515021790555080600701869080600181540180825580915050600190039060005260206000200160009091909190916101000a81548173ffffffffffffffffffffffffffffffffffffffff021916908373ffffffffffffffffffffffffffffffffffffffff1602179055505b5b505b50611e86565b60028160000160156101000a81548160ff02191690836002811115611e0657611e05613e69565b5b021790555081816002019081611e1c9190615290565b506000600360008673ffffffffffffffffffffffffffffffffffffffff1673ffffffffffffffffffffffffffffffffffffffff16815260200190815260200160002060006101000a81548160ff02191690836004811115611e8057611e7f613e69565b5b02179055505b60005b60088054905081101561200c578473ffffffffffffffffffffffffffffffffffffffff1660088281548110611ec157611ec06155e8565b5b9060005260206000200160009054906101000a900473ffffffffffffffffffffffffffffffffffffffff1673ffffffffffffffffffffffffffffffffffffffff1603611fff5760086001600880549050611f1b91906154dc565b81548110611f2c57611f2b6155e8565b5b9060005260206000200160009054906101000a900473ffffffffffffffffffffffffffffffffffffffff1660088281548110611f6b57611f6a6155e8565b5b9060005260206000200160006101000a81548173ffffffffffffffffffffffffffffffffffffffff021916908373ffffffffffffffffffffffffffffffffffffffff1602179055506008805480611fc557611fc4615617565b5b6001900381819060005260206000200160006101000a81549073ffffffffffffffffffffffffffffffffffffffff0219169055905561200c565b8080600101915050611e89565b507ff8388899869f7c36056bc92705c01f5570b9b12da283b7e13219abdd348b77c7848260000160149054906101000a900460ff168360000160159054906101000a900460ff16856040516120649493929190615646565b60405180910390a150505050565b606080606080600a60009054906101000a900473ffffffffffffffffffffffffffffffffffffffff1673ffffffffffffffffffffffffffffffffffffffff163373ffffffffffffffffffffffffffffffffffffffff1614612108576040517f08c379a00000000000000000000000000000000000000000000000000000000081526004016120ff90614eee565b60405180910390fd5b60088054905067ffffffffffffffff81111561212757612126613f93565b5b6040519080825280602002602001820160405280156121555781602001602082028036833780820191505090505b50935060088054905067ffffffffffffffff81111561217757612176613f93565b5b6040519080825280602002602001820160405280156121a55781602001602082028036833780820191505090505b50925060088054905067ffffffffffffffff8111156121c7576121c6613f93565b5b6040519080825280602002602001820160405280156121fa57816020015b60608152602001906001900390816121e55790505b50915060088054905067ffffffffffffffff81111561221c5761221b613f93565b5b60405190808252806020026020018201604052801561224f57816020015b606081526020019060019003908161223a5790505b50905060005b6008805490508110156125d457600060088281548110612278576122776155e8565b5b9060005260206000200160009054906101000a900473ffffffffffffffffffffffffffffffffffffffff1690506000600460008373ffffffffffffffffffffffffffffffffffffffff1673ffffffffffffffffffffffffffffffffffffffff1681526020019081526020016000206040518060a00160405290816000820160009054906101000a900473ffffffffffffffffffffffffffffffffffffffff1673ffffffffffffffffffffffffffffffffffffffff1673ffffffffffffffffffffffffffffffffffffffff1681526020016000820160149054906101000a900460ff16600481111561236c5761236b613e69565b5b600481111561237e5761237d613e69565b5b81526020016000820160159054906101000a900460ff1660028111156123a7576123a6613e69565b5b60028111156123b9576123b8613e69565b5b81526020016001820180546123cd90614e2f565b80601f01602080910402602001604051908101604052809291908181526020018280546123f990614e2f565b80156124465780601f1061241b57610100808354040283529160200191612446565b820191906000526020600020905b81548152906001019060200180831161242957829003601f168201915b5050505050815260200160028201805461245f90614e2f565b80601f016020809104026020016040519081016040528092919081815260200182805461248b90614e2f565b80156124d85780601f106124ad576101008083540402835291602001916124d8565b820191906000526020600020905b8154815290600101906020018083116124bb57829003601f168201915b505050505081525050905080600001518784815181106124fb576124fa6155e8565b5b602002602001019073ffffffffffffffffffffffffffffffffffffffff16908173ffffffffffffffffffffffffffffffffffffffff1681525050806020015186848151811061254d5761254c6155e8565b5b6020026020010190600481111561256757612566613e69565b5b9081600481111561257b5761257a613e69565b5b815250508060600151858481518110612597576125966155e8565b5b602002602001018190525080608001518484815181106125ba576125b96155e8565b5b602002602001018190525050508080600101915050612255565b5090919293565b60006005600083815260200190815260200160002090508060080160009054906101000a900460ff16612643576040517f08c379a000000000000000000000000000000000000000000000000000000000815260040161263a90614b82565b60405180910390fd5b806001015442101561268a576040517f08c379a0000000000000000000000000000000000000000000000000000000008152600401612681906156de565b60405180910390fd5b6001600481111561269e5761269d613e69565b5b600360003373ffffffffffffffffffffffffffffffffffffffff1673ffffffffffffffffffffffffffffffffffffffff16815260200190815260200160002060009054906101000a900460ff1660048111156126fd576126fc613e69565b5b03612855578060040160003373ffffffffffffffffffffffffffffffffffffffff1673ffffffffffffffffffffffffffffffffffffffff16815260200190815260200160002060009054906101000a900460ff1615612791576040517f08c379a00000000000000000000000000000000000000000000000000000000081526004016127889061555c565b60405180910390fd5b60018160040160003373ffffffffffffffffffffffffffffffffffffffff1673ffffffffffffffffffffffffffffffffffffffff16815260200190815260200160002060006101000a81548160ff02191690831515021790555080600601339080600181540180825580915050600190039060005260206000200160009091909190916101000a81548173ffffffffffffffffffffffffffffffffffffffff021916908373ffffffffffffffffffffffffffffffffffffffff160217905550612a5c565b6002600481111561286957612868613e69565b5b600360003373ffffffffffffffffffffffffffffffffffffffff1673ffffffffffffffffffffffffffffffffffffffff16815260200190815260200160002060009054906101000a900460ff1660048111156128c8576128c7613e69565b5b03612a20578060050160003373ffffffffffffffffffffffffffffffffffffffff1673ffffffffffffffffffffffffffffffffffffffff16815260200190815260200160002060009054906101000a900460ff161561295c576040517f08c379a0000000000000000000000000000000000000000000000000000000008152600401612953906155c8565b60405180910390fd5b60018160050160003373ffffffffffffffffffffffffffffffffffffffff1673ffffffffffffffffffffffffffffffffffffffff16815260200190815260200160002060006101000a81548160ff02191690831515021790555080600701339080600181540180825580915050600190039060005260206000200160009091909190916101000a81548173ffffffffffffffffffffffffffffffffffffffff021916908373ffffffffffffffffffffffffffffffffffffffff160217905550612a5b565b6040517f08c379a0000000000000000000000000000000000000000000000000000000008152600401612a529061574a565b60405180910390fd5b5b5050565b60008060008060608060606000600560008a815260200190815260200160002090506000816000015403612ac9576040517f08c379a0000000000000000000000000000000000000000000000000000000008152600401612ac0906157b6565b60405180910390fd5b806001015481600201548260030160009054906101000a900473ffffffffffffffffffffffffffffffffffffffff168360080160009054906101000a900460ff1684600901600a60009054906101000a900473ffffffffffffffffffffffffffffffffffffffff1673ffffffffffffffffffffffffffffffffffffffff163373ffffffffffffffffffffffffffffffffffffffff1614612bb257600067ffffffffffffffff811115612b7e57612b7d613f93565b5b604051908082528060200260200182016040528015612bac5781602001602082028036833780820191505090505b50612c3c565b85600601805480602002602001604051908101604052809291908181526020018280548015612c3657602002820191906000526020600020905b8160009054906101000a900473ffffffffffffffffffffffffffffffffffffffff1673ffffffffffffffffffffffffffffffffffffffff1681526020019060010190808311612bec575b50505050505b600a60009054906101000a900473ffffffffffffffffffffffffffffffffffffffff1673ffffffffffffffffffffffffffffffffffffffff163373ffffffffffffffffffffffffffffffffffffffff1614612ce057600067ffffffffffffffff811115612cac57612cab613f93565b5b604051908082528060200260200182016040528015612cda5781602001602082028036833780820191505090505b50612d6a565b86600701805480602002602001604051908101604052809291908181526020018280548015612d6457602002820191906000526020600020905b8160009054906101000a900473ffffffffffffffffffffffffffffffffffffffff1673ffffffffffffffffffffffffffffffffffffffff1681526020019060010190808311612d1a575b50505050505b828054612d7690614e2f565b80601f0160208091040260200160405190810160405280929190818152602001828054612da290614e2f565b8015612def5780601f10612dc457610100808354040283529160200191612def565b820191906000526020600020905b815481529060010190602001808311612dd257829003601f168201915b50505050509250975097509750975097509750975050919395979092949650565b612e18610f67565b612e57576040517f08c379a0000000000000000000000000000000000000000000000000000000008152600401612e4e90614b16565b60405180910390fd5b60016004811115612e6b57612e6a613e69565b5b826004811115612e7e57612e7d613e69565b5b1480612eae575060026004811115612e9957612e98613e69565b5b826004811115612eac57612eab613e69565b5b145b612eed576040517f08c379a0000000000000000000000000000000000000000000000000000000008152600401612ee490615822565b60405180910390fd5b60006004811115612f0157612f00613e69565b5b600360003373ffffffffffffffffffffffffffffffffffffffff1673ffffffffffffffffffffffffffffffffffffffff16815260200190815260200160002060009054906101000a900460ff166004811115612f6057612f5f613e69565b5b14612fa0576040517f08c379a0000000000000000000000000000000000000000000000000000000008152600401612f979061588e565b60405180910390fd5b6040518060a001604052803373ffffffffffffffffffffffffffffffffffffffff168152602001836004811115612fda57612fd9613e69565b5b815260200160006002811115612ff357612ff2613e69565b5b815260200182815260200160405180602001604052806000815250815250600460003373ffffffffffffffffffffffffffffffffffffffff1673ffffffffffffffffffffffffffffffffffffffff16815260200190815260200160002060008201518160000160006101000a81548173ffffffffffffffffffffffffffffffffffffffff021916908373ffffffffffffffffffffffffffffffffffffffff16021790555060208201518160000160146101000a81548160ff021916908360048111156130c2576130c1613e69565b5b021790555060408201518160000160156101000a81548160ff021916908360028111156130f2576130f1613e69565b5b0217905550606082015181600101908161310c9190615290565b5060808201518160020190816131229190615290565b509050506004600360003373ffffffffffffffffffffffffffffffffffffffff1673ffffffffffffffffffffffffffffffffffffffff16815260200190815260200160002060006101000a81548160ff0219169083600481111561318957613188613e69565b5b02179055506008339080600181540180825580915050600190039060005260206000200160009091909190916101000a81548173ffffffffffffffffffffffffffffffffffffffff021916908373ffffffffffffffffffffffffffffffffffffffff1602179055507f917076d07664226125282e23857512bc128d9c3662d07f9e8c803620010a99de338383604051613224939291906158ae565b60405180910390a15050565b61323861388f565b600073ffffffffffffffffffffffffffffffffffffffff168173ffffffffffffffffffffffffffffffffffffffff16036132aa5760006040517f1e4fbdf70000000000000000000000000000000000000000000000000000000081526004016132a19190614276565b60405180910390fd5b6132b381613916565b50565b600a60009054906101000a900473ffffffffffffffffffffffffffffffffffffffff1681565b600260015403613318576040517f3ee5aeb500000000000000000000000000000000000000000000000000000000815260040160405180910390fd5b6002600181905550565b60018081905550565b60006005600083815260200190815260200160002090508060080160009054906101000a900460ff16613393576040517f08c379a000000000000000000000000000000000000000000000000000000000815260040161338a90614f5a565b60405180910390fd5b60008160080160006101000a81548160ff02191690831515021790555060006133bb836139da565b9050808260030160006101000a81548173ffffffffffffffffffffffffffffffffffffffff021916908373ffffffffffffffffffffffffffffffffffffffff16021790555060005b826006018054905081101561364b57600083600601828154811061342a576134296155e8565b5b9060005260206000200160009054906101000a900473ffffffffffffffffffffffffffffffffffffffff16905060008460040160008373ffffffffffffffffffffffffffffffffffffffff1673ffffffffffffffffffffffffffffffffffffffff16815260200190815260200160002060006101000a81548160ff021916908315150217905550600660008273ffffffffffffffffffffffffffffffffffffffff1673ffffffffffffffffffffffffffffffffffffffff168152602001908152602001600020600086815260200190815260200160002060006101000a81549073ffffffffffffffffffffffffffffffffffffffff02191690556000600360008373ffffffffffffffffffffffffffffffffffffffff1673ffffffffffffffffffffffffffffffffffffffff16815260200190815260200160002060006101000a81548160ff0219169083600481111561358757613586613e69565b5b0217905550600460008273ffffffffffffffffffffffffffffffffffffffff1673ffffffffffffffffffffffffffffffffffffffff168152602001908152602001600020600080820160006101000a81549073ffffffffffffffffffffffffffffffffffffffff02191690556000820160146101000a81549060ff02191690556000820160156101000a81549060ff021916905560018201600061362b9190613b1c565b60028201600061363b9190613b1c565b5050508080600101915050613403565b5060005b8260070180549050811015613869576000836007018281548110613676576136756155e8565b5b9060005260206000200160009054906101000a900473ffffffffffffffffffffffffffffffffffffffff16905060008460050160008373ffffffffffffffffffffffffffffffffffffffff1673ffffffffffffffffffffffffffffffffffffffff16815260200190815260200160002060006101000a81548160ff0219169083151502179055506000600760008373ffffffffffffffffffffffffffffffffffffffff1673ffffffffffffffffffffffffffffffffffffffff168152602001908152602001600020819055506000600360008373ffffffffffffffffffffffffffffffffffffffff1673ffffffffffffffffffffffffffffffffffffffff16815260200190815260200160002060006101000a81548160ff021916908360048111156137a5576137a4613e69565b5b0217905550600460008273ffffffffffffffffffffffffffffffffffffffff1673ffffffffffffffffffffffffffffffffffffffff168152602001908152602001600020600080820160006101000a81549073ffffffffffffffffffffffffffffffffffffffff02191690556000820160146101000a81549060ff02191690556000820160156101000a81549060ff02191690556001820160006138499190613b1c565b6002820160006138599190613b1c565b505050808060010191505061364f565b5081600601600061387a9190613afb565b81600701600061388a9190613afb565b505050565b613897613af3565b73ffffffffffffffffffffffffffffffffffffffff166138b56112e7565b73ffffffffffffffffffffffffffffffffffffffff1614613914576138d8613af3565b6040517f118cdaa700000000000000000000000000000000000000000000000000000000815260040161390b9190614276565b60405180910390fd5b565b60008060009054906101000a900473ffffffffffffffffffffffffffffffffffffffff169050816000806101000a81548173ffffffffffffffffffffffffffffffffffffffff021916908373ffffffffffffffffffffffffffffffffffffffff1602179055508173ffffffffffffffffffffffffffffffffffffffff168173ffffffffffffffffffffffffffffffffffffffff167f8be0079c531659141344cd1fd0a4f28419497f9722a3daafe3b4186f6b6457e060405160405180910390a35050565b60008060056000848152602001908152602001600020905060008060005b8360070180549050811015613ae7576000846007018281548110613a1f57613a1e6155e8565b5b9060005260206000200160009054906101000a900473ffffffffffffffffffffffffffffffffffffffff16905082600760008373ffffffffffffffffffffffffffffffffffffffff1673ffffffffffffffffffffffffffffffffffffffff168152602001908152602001600020541115613ad957600760008273ffffffffffffffffffffffffffffffffffffffff1673ffffffffffffffffffffffffffffffffffffffff1681526020019081526020016000205492508093505b5080806001019150506139f8565b50819350505050919050565b600033905090565b5080546000825590600052602060002090810190613b199190613bb5565b50565b508054613b2890614e2f565b6000825580601f10613b3a5750613b59565b601f016020900490600052602060002090810190613b589190613bb5565b5b50565b828054828255906000526020600020908101928215613ba4579160200282015b82811115613ba3578251829081613b939190615290565b5091602001919060010190613b7c565b5b509050613bb19190613bd2565b5090565b5b80821115613bce576000816000905550600101613bb6565b5090565b5b80821115613bf25760008181613be99190613b1c565b50600101613bd3565b5090565b6000604051905090565b600080fd5b600080fd5b6000819050919050565b613c1d81613c0a565b8114613c2857600080fd5b50565b600081359050613c3a81613c14565b92915050565b600073ffffffffffffffffffffffffffffffffffffffff82169050919050565b6000613c6b82613c40565b9050919050565b613c7b81613c60565b8114613c8657600080fd5b50565b600081359050613c9881613c72565b92915050565b60008060408385031215613cb557613cb4613c00565b5b6000613cc385828601613c2b565b9250506020613cd485828601613c89565b9150509250929050565b600060208284031215613cf457613cf3613c00565b5b6000613d0284828501613c2b565b91505092915050565b613d1481613c0a565b82525050565b613d2381613c60565b82525050565b60008115159050919050565b613d3e81613d29565b82525050565b600081519050919050565b600082825260208201905092915050565b60005b83811015613d7e578082015181840152602081019050613d63565b60008484015250505050565b6000601f19601f8301169050919050565b6000613da682613d44565b613db08185613d4f565b9350613dc0818560208601613d60565b613dc981613d8a565b840191505092915050565b600060c082019050613de96000830189613d0b565b613df66020830188613d0b565b613e036040830187613d0b565b613e106060830186613d1a565b613e1d6080830185613d35565b81810360a0830152613e2f8184613d9b565b9050979650505050505050565b600060208284031215613e5257613e51613c00565b5b6000613e6084828501613c89565b91505092915050565b7f4e487b7100000000000000000000000000000000000000000000000000000000600052602160045260246000fd5b60058110613ea957613ea8613e69565b5b50565b6000819050613eba82613e98565b919050565b6000613eca82613eac565b9050919050565b613eda81613ebf565b82525050565b60038110613ef157613ef0613e69565b5b50565b6000819050613f0282613ee0565b919050565b6000613f1282613ef4565b9050919050565b613f2281613f07565b82525050565b600060a082019050613f3d6000830188613d1a565b613f4a6020830187613ed1565b613f576040830186613f19565b8181036060830152613f698185613d9b565b90508181036080830152613f7d8184613d9b565b90509695505050505050565b600080fd5b600080fd5b7f4e487b7100000000000000000000000000000000000000000000000000000000600052604160045260246000fd5b613fcb82613d8a565b810181811067ffffffffffffffff82111715613fea57613fe9613f93565b5b80604052505050565b6000613ffd613bf6565b90506140098282613fc2565b919050565b600067ffffffffffffffff82111561402957614028613f93565b5b61403282613d8a565b9050602081019050919050565b82818337600083830152505050565b600061406161405c8461400e565b613ff3565b90508281526020810184848401111561407d5761407c613f8e565b5b61408884828561403f565b509392505050565b600082601f8301126140a5576140a4613f89565b5b81356140b584826020860161404e565b91505092915050565b6000602082840312156140d4576140d3613c00565b5b600082013567ffffffffffffffff8111156140f2576140f1613c05565b5b6140fe84828501614090565b91505092915050565b600060e0820190508181036000830152614121818a613d9b565b905081810360208301526141358189613d9b565b90506141446040830188613d0b565b81810360608301526141568187613d9b565b9050818103608083015261416a8186613d9b565b905081810360a083015261417e8185613d9b565b905081810360c08301526141928184613d9b565b905098975050505050505050565b60006020820190506141b56000830184613d35565b92915050565b600081519050919050565b600082825260208201905092915050565b60006141e2826141bb565b6141ec81856141c6565b93506141fc818560208601613d60565b61420581613d8a565b840191505092915050565b60006040820190506142256000830185613d35565b818103602083015261423781846141d7565b90509392505050565b60006020820190506142556000830184613ed1565b92915050565b60006020820190506142706000830184613d0b565b92915050565b600060208201905061428b6000830184613d1a565b92915050565b600067ffffffffffffffff8211156142ac576142ab613f93565b5b6142b582613d8a565b9050602081019050919050565b60006142d56142d084614291565b613ff3565b9050828152602081018484840111156142f1576142f0613f8e565b5b6142fc84828561403f565b509392505050565b600082601f83011261431957614318613f89565b5b81356143298482602086016142c2565b91505092915050565b60008060006060848603121561434b5761434a613c00565b5b600061435986828701613c2b565b935050602061436a86828701613c2b565b925050604084013567ffffffffffffffff81111561438b5761438a613c05565b5b61439786828701614304565b9150509250925092565b600080604083850312156143b8576143b7613c00565b5b60006143c685828601613c89565b92505060206143d785828601613c2b565b9150509250929050565b600067ffffffffffffffff8211156143fc576143fb613f93565b5b602082029050602081019050919050565b600080fd5b6000614425614420846143e1565b613ff3565b905080838252602082019050602084028301858111156144485761444761440d565b5b835b8181101561448f57803567ffffffffffffffff81111561446d5761446c613f89565b5b80860161447a8982614304565b8552602085019450505060208101905061444a565b5050509392505050565b600082601f8301126144ae576144ad613f89565b5b81356144be848260208601614412565b91505092915050565b600080600080600080600080610100898b0312156144e8576144e7613c00565b5b600089013567ffffffffffffffff81111561450657614505613c05565b5b6145128b828c01614304565b985050602089013567ffffffffffffffff81111561453357614532613c05565b5b61453f8b828c01614304565b97505060406145508b828c01613c2b565b965050606089013567ffffffffffffffff81111561457157614570613c05565b5b61457d8b828c01614304565b955050608089013567ffffffffffffffff81111561459e5761459d613c05565b5b6145aa8b828c01614304565b94505060a089013567ffffffffffffffff8111156145cb576145ca613c05565b5b6145d78b828c01614304565b93505060c089013567ffffffffffffffff8111156145f8576145f7613c05565b5b6146048b828c01614304565b92505060e089013567ffffffffffffffff81111561462557614624613c05565b5b6146318b828c01614499565b9150509295985092959890939650565b61464a81613d29565b811461465557600080fd5b50565b60008135905061466781614641565b92915050565b60008060006060848603121561468657614685613c00565b5b600061469486828701613c89565b93505060206146a586828701614658565b925050604084013567ffffffffffffffff8111156146c6576146c5613c05565b5b6146d286828701614304565b9150509250925092565b600081519050919050565b600082825260208201905092915050565b6000819050602082019050919050565b61471181613c60565b82525050565b60006147238383614708565b60208301905092915050565b6000602082019050919050565b6000614747826146dc565b61475181856146e7565b935061475c836146f8565b8060005b8381101561478d5781516147748882614717565b975061477f8361472f565b925050600181019050614760565b5085935050505092915050565b600081519050919050565b600082825260208201905092915050565b6000819050602082019050919050565b6147cf81613ebf565b82525050565b60006147e183836147c6565b60208301905092915050565b6000602082019050919050565b60006148058261479a565b61480f81856147a5565b935061481a836147b6565b8060005b8381101561484b57815161483288826147d5565b975061483d836147ed565b92505060018101905061481e565b5085935050505092915050565b600081519050919050565b600082825260208201905092915050565b6000819050602082019050919050565b600082825260208201905092915050565b60006148a082613d44565b6148aa8185614884565b93506148ba818560208601613d60565b6148c381613d8a565b840191505092915050565b60006148da8383614895565b905092915050565b6000602082019050919050565b60006148fa82614858565b6149048185614863565b93508360208202850161491685614874565b8060005b85811015614952578484038952815161493385826148ce565b945061493e836148e2565b925060208a0199505060018101905061491a565b50829750879550505050505092915050565b6000608082019050818103600083015261497e818761473c565b9050818103602083015261499281866147fa565b905081810360408301526149a681856148ef565b905081810360608301526149ba81846148ef565b905095945050505050565b600060e0820190506149da600083018a613d0b565b6149e76020830189613d0b565b6149f46040830188613d1a565b614a016060830187613d35565b8181036080830152614a138186613d9b565b905081810360a0830152614a27818561473c565b905081810360c0830152614a3b818461473c565b905098975050505050505050565b60058110614a5657600080fd5b50565b600081359050614a6881614a49565b92915050565b60008060408385031215614a8557614a84613c00565b5b6000614a9385828601614a59565b925050602083013567ffffffffffffffff811115614ab457614ab3613c05565b5b614ac085828601614304565b9150509250929050565b7f4e6f206163746976652063616d706169676e2072756e6e696e67000000000000600082015250565b6000614b00601a83613d4f565b9150614b0b82614aca565b602082019050919050565b60006020820190508181036000830152614b2f81614af3565b9050919050565b7f43616d706169676e20636c6f7365640000000000000000000000000000000000600082015250565b6000614b6c600f83613d4f565b9150614b7782614b36565b602082019050919050565b60006020820190508181036000830152614b9b81614b5f565b9050919050565b7f4e6f74206120766f746572000000000000000000000000000000000000000000600082015250565b6000614bd8600b83613d4f565b9150614be382614ba2565b602082019050919050565b60006020820190508181036000830152614c0781614bcb565b9050919050565b7f4e6f742072656769737465726564000000000000000000000000000000000000600082015250565b6000614c44600e83613d4f565b9150614c4f82614c0e565b602082019050919050565b60006020820190508181036000830152614c7381614c37565b9050919050565b7f496e76616c69642063616e646964617465000000000000000000000000000000600082015250565b6000614cb0601183613d4f565b9150614cbb82614c7a565b602082019050919050565b60006020820190508181036000830152614cdf81614ca3565b9050919050565b7f416c726561647920766f74656400000000000000000000000000000000000000600082015250565b6000614d1c600d83613d4f565b9150614d2782614ce6565b602082019050919050565b60006020820190508181036000830152614d4b81614d0f565b9050919050565b7f4e487b7100000000000000000000000000000000000000000000000000000000600052601160045260246000fd5b6000614d8c82613c0a565b91507fffffffffffffffffffffffffffffffffffffffffffffffffffffffffffffffff8203614dbe57614dbd614d52565b5b600182019050919050565b6000606082019050614dde6000830186613d1a565b614deb6020830185613d1a565b614df86040830184613d0b565b949350505050565b7f4e487b7100000000000000000000000000000000000000000000000000000000600052602260045260246000fd5b60006002820490506001821680614e4757607f821691505b602082108103614e5a57614e59614e00565b5b50919050565b600081519050614e6f81613c14565b92915050565b600060208284031215614e8b57614e8a613c00565b5b6000614e9984828501614e60565b91505092915050565b7f41646d696e206f6e6c7900000000000000000000000000000000000000000000600082015250565b6000614ed8600a83613d4f565b9150614ee382614ea2565b602082019050919050565b60006020820190508181036000830152614f0781614ecb565b9050919050565b7f43616d706169676e20616c726561647920636c6f736564000000000000000000600082015250565b6000614f44601783613d4f565b9150614f4f82614f0e565b602082019050919050565b60006020820190508181036000830152614f7381614f37565b9050919050565b7f43616d706169676e20616c726561647920737461727465640000000000000000600082015250565b6000614fb0601883613d4f565b9150614fbb82614f7a565b602082019050919050565b60006020820190508181036000830152614fdf81614fa3565b9050919050565b7f496e76616c696420646174657300000000000000000000000000000000000000600082015250565b600061501c600d83613d4f565b915061502782614fe6565b602082019050919050565b6000602082019050818103600083015261504b8161500f565b9050919050565b7f43616d706169676e206f7665726c6170732077697468206578697374696e672060008201527f63616d706169676e000000000000000000000000000000000000000000000000602082015250565b60006150ae602883613d4f565b91506150b982615052565b604082019050919050565b600060208201905081810360008301526150dd816150a1565b9050919050565b60008190508160005260206000209050919050565b60006020601f8301049050919050565b600082821b905092915050565b6000600883026151467fffffffffffffffffffffffffffffffffffffffffffffffffffffffffffffffff82615109565b6151508683615109565b95508019841693508086168417925050509392505050565b6000819050919050565b600061518d61518861518384613c0a565b615168565b613c0a565b9050919050565b6000819050919050565b6151a783615172565b6151bb6151b382615194565b848454615116565b825550505050565b600090565b6151d06151c3565b6151db81848461519e565b505050565b5b818110156151ff576151f46000826151c8565b6001810190506151e1565b5050565b601f82111561524457615215816150e4565b61521e846150f9565b8101602085101561522d578190505b615241615239856150f9565b8301826151e0565b50505b505050565b600082821c905092915050565b600061526760001984600802615249565b1980831691505092915050565b60006152808383615256565b9150826002028217905092915050565b61529982613d44565b67ffffffffffffffff8111156152b2576152b1613f93565b5b6152bc8254614e2f565b6152c7828285615203565b600060209050601f8311600181146152fa57600084156152e8578287015190505b6152f28582615274565b86555061535a565b601f198416615308866150e4565b60005b828110156153305784890151825560018201915060208501945060208101905061530b565b8683101561534d5784890151615349601f891682615256565b8355505b6001600288020188555050505b505050505050565b60006060820190506153776000830186613d0b565b6153846020830185613d0b565b6153916040830184613d0b565b949350505050565b7f43616e6e6f74206d6f646966792064657461696c73206166746572207665726960008201527f6669636174696f6e000000000000000000000000000000000000000000000000602082015250565b60006153f5602883613d4f565b915061540082615399565b604082019050919050565b60006020820190508181036000830152615424816153e8565b9050919050565b60006060820190506154406000830186613d1a565b81810360208301526154528185613d9b565b905081810360408301526154668184613d9b565b9050949350505050565b7f4e6f2070656e64696e6720726571756573740000000000000000000000000000600082015250565b60006154a6601283613d4f565b91506154b182615470565b602082019050919050565b600060208201905081810360008301526154d581615499565b9050919050565b60006154e782613c0a565b91506154f283613c0a565b925082820390508181111561550a57615509614d52565b5b92915050565b7f416c7265616479207265676973746572656420617320766f7465720000000000600082015250565b6000615546601b83613d4f565b915061555182615510565b602082019050919050565b6000602082019050818103600083015261557581615539565b9050919050565b7f416c726561647920726567697374657265642061732063616e64696461746500600082015250565b60006155b2601f83613d4f565b91506155bd8261557c565b602082019050919050565b600060208201905081810360008301526155e1816155a5565b9050919050565b7f4e487b7100000000000000000000000000000000000000000000000000000000600052603260045260246000fd5b7f4e487b7100000000000000000000000000000000000000000000000000000000600052603160045260246000fd5b600060808201905061565b6000830187613d1a565b6156686020830186613ed1565b6156756040830185613f19565b81810360608301526156878184613d9b565b905095945050505050565b7f43616d706169676e206e6f742073746172746564000000000000000000000000600082015250565b60006156c8601483613d4f565b91506156d382615692565b602082019050919050565b600060208201905081810360008301526156f7816156bb565b9050919050565b7f496e76616c696420726f6c650000000000000000000000000000000000000000600082015250565b6000615734600c83613d4f565b915061573f826156fe565b602082019050919050565b6000602082019050818103600083015261576381615727565b9050919050565b7f43616d706169676e20646f6573206e6f74206578697374000000000000000000600082015250565b60006157a0601783613d4f565b91506157ab8261576a565b602082019050919050565b600060208201905081810360008301526157cf81615793565b9050919050565b7f496e76616c696420726f6c652072657175657374656400000000000000000000600082015250565b600061580c601683613d4f565b9150615817826157d6565b602082019050919050565b6000602082019050818103600083015261583b816157ff565b9050919050565b7f416c7265616479207665726966696564206f722070656e64696e670000000000600082015250565b6000615878601b83613d4f565b915061588382615842565b602082019050919050565b600060208201905081810360008301526158a78161586b565b9050919050565b60006060820190506158c36000830186613d1a565b6158d06020830185613ed1565b81810360408301526158e28184613d9b565b905094935050505056fea2646970667358221220e18e6bf22481d4e7ba1af3dc0428e6ca829c57fa0abb352451d3486ccbb2ea4764736f6c634300081c0033",
  "linkReferences": {},
  "deployedLinkReferences": {}
}